:1000000086C10000B5C10000B3C10000B1C100004D
:10001000AFC10000ADC10000ABC10000A9C100002C
:10002000A7C100000C945A120C9450120C94461262
:100030009FC100000C94E3239BC1000099C1000004
:1000400097C1000095C1000093C1000091C100005C
:100050008FC100008DC100008BC100000C9478118D
:1000600087C100000C9460080C94370881C100001F
:100070007FC100007DC100007BC1000079C100008C
:1000800077C1000075C1000073C1000071C100009C
:10009000C5C700009AC700006BC1000069C100001D
:1000A00067C1000065C1000063C1000061C10000BC
:1000B0005FC100005DC100005BC1000059C10000CC
:1000C00057C1000055C1000053C1000051C10000DC
:1000D0004FC100004DC100004BC1000049C10000EC
:1000E00047C10000E80FEB0FDA0FDE0FE40F22101C
:1000F000EF0FF30FF90FFD0F011007100B100F108A
:100100002210151019101D10EF14E914FF14F71424
:10011000F414A414C1146B1400000A0B02090C0D92
:100120000E080703040100000000000000000000AA
:1001300000000000000000000000000000000000BF
:10014000000000001211100000000000000000007C
:10015000000000000000000000000000000041540A
:1001600048002B434C49503A0042555359004E4FDA
:100170002043415252494552002B434F4C503A00C4
:1001800052494E470000002100240027002A002D7C
:10019000003000330001010000040107010A0100E2
:1001A000002200250028002B002E00310034000220
:1001B000010000050108010B0100002000230026BA
:1001C0000029002C002F003200000100000301066E
:1001D00001090105050505070508080808020202CE
:1001E000020A0A08080404040401010101010101D2
:1001F000010303030303030303040707070C0C0CA9
:100200000C0C0C0C0C020202020606060606060680
:10021000060B0B0B0B0B0B0B0B010210202008081D
:100220001020401020408002010201080402010158
:100230000204081020408080402010080402018041
:100240000402018040201008040201080402010198
:10025000020408102040800102040810204080435E
:100260004F4E4E4543540D0A0041542B51494F50B7
:10027000454E3D0041542B5149444E5349503D0099
:1002800041542B5149434C4F534500434C4F534528
:10029000440041542B514953455256455200415454
:1002A0002B51494C504F52543D22544350222C0064
:1002B00041542B51494C4F43495000434F4E4E45FA
:1002C00043540D0A00434C4F5345440D0A0041541A
:1002D0002B434D47533D220041542B434D474C3D4A
:1002E0002252454320554E52454144222C31004173
:1002F000542B434D47443D004154440041542B434B
:100300004C434300415441000200F72CB930112402
:100310001FBECFEFD1E2DEBFCDBF00E00CBF2BE0B0
:10032000A6EEB6E001C01D92AF3CB207E1F716E0C1
:10033000A0E0B2E0E4EEFDE600E00BBF02C00790F3
:100340000D92A63EB107D9F711E0C6E8D1E000E072
:1003500006C021970109802FFE010E947D34C53817
:10036000D10780E00807A9F70E941D280C94E13608
:1003700047CECF93FC01E60FF71FC081CC2381F05D
:100380006F5F7F4FF6DF21E2AC01249FC001259F04
:10039000900D11242C2FCC0F330B8227932702C0F2
:1003A00085E095E1CF910895FC0126813781620FA8
:1003B000731F848195818617970738F08281938116
:1003C00077836683820F931F089580E090E00895FD
:1003D0008F929F92AF92BF92CF92DF92EF92FF9255
:1003E0000F931F93CF93DF93CDB7DEB76F970FB601
:1003F000F894DEBF0FBECDBF6DE473E088E097E0F8
:100400000E94F5278091FB06882309F417C4809188
:10041000650890916608009711F486E796E02DE94B
:1004200038E03A8329839C838B833E832D838AE043
:100430008F838E010F5F1F4FC8010E94BA177C0186
:1004400064E573E00E9490166C01009709F443C0C4
:10045000FC01A480B580F1E0AF16B10461F4FC01A9
:10046000668177816115710531F088E593E00E941E
:10047000B736892B69F0F1E0AF1AB10822E0A21675
:10048000B10430F4F601668177816115710529F5B3
:1004900066E776E0C8010E948B231F870E87CE0196
:1004A0000E96998788871B861A86BE01685F7F4FE4
:1004B000C60104960E9440141B8E1A8E1D8E1C8E3F
:1004C0001F8E1E8EB801CE014A960E94F422C801EA
:1004D0000E947E2306C066E776E0CE014A960E941F
:1004E0008B2360E070E08A8D9B8D43DF8430F3E7DF
:1004F0009F0709F4BEC008F061C0883BE0E29E0798
:1005000009F4E3C0F0F48B3B23E1920709F402C243
:1005100058F489349D4009F081C39091D90A81E053
:1005200089278093D90A7AC3873A2CE1920709F484
:10053000C9C08C309D4109F071C3C8010E94310EC1
:10054000E2C18B36FDE59F0709F4C2C2C8F48E30C4
:100550009C4409F063C366E776E0CE0108960E94EA
:100560008B236BE673E08DE699E00E940D288DE603
:1005700099E00E94F1270E94E5104B015C012BC11C
:100580008332FEE59F0709F4A7C0873A9A4609F02F
:1005900045C366E776E0CE0108960E948B2364E6A9
:1005A00073E08DE699E00E940D288DE699E00E94A7
:1005B000F1270E94E5104B015C01ECC08A3EE2EBA2
:1005C0009E0709F477C078F589382CE7920709F47B
:1005D000C5C258F48A36944709F020C390918D0A19
:1005E00081E0892780938D0A19C38A3F29E9920700
:1005F00009F403C189369A4A09F010C366E776E028
:10060000CE0108960E948B2362EC73E08DE699E0A0
:100610000E940D288DE699E00E94F1270E94E510C6
:100620004B015C010FC28837F3ED9F0709F41CC230
:1006300080F48E36E5EB9E0709F459C08B3F904C51
:1006400009F0ECC29091B30A81E089278093B30A44
:10065000E5C2803222EF920709F4ACC0803C9F4F84
:1006600009F0DCC29091C60A81E089278093C60A0E
:10067000D5C20E94E5100091E50A1091E60A20918A
:10068000E70A3091E80AAB01BC01401B510B620B39
:10069000730B8091E20A9091E30A092E000CAA0BD9
:1006A000BB0B481759076A077B0708F4B7C20E94BB
:1006B000580CB4C28091EB0A823009F0BBC2109290
:1006C000EB0AB8C21092ED0AA9C29091A00A81E08B
:1006D00089278093A00AA2C21092D90A1092C60A52
:1006E0001092B30A1092A00A10928D0A97C266E780
:1006F00076E0CE0108960E948B236DE573E08DE6CF
:1007000099E00E940D288DE699E00E94F1270E9451
:10071000E5104B015C010E94E510DC01CB0188195A
:100720009909AA09BB09803D9740A105B10570F45C
:100730008DE699E029D3892B71F38DE699E002D3F8
:10074000682FCE0108960E941D0EE5CF2C853D85B1
:1007500046E050E0BE01685F7F4FC8010E94980DDF
:10076000B801CE0108960E942D23C8010E947E2365
:1007700021E130E040E050E036C28DE699E004D35C
:10078000892B41F08DE699E0DDD2682FCE010896E5
:100790000E941D0E0E94E510DC01CB018819990909
:1007A000AA09BB09883E9340A105B10530F32AE2AE
:1007B00030E08BC1C8010E948B0EA5C08DE699E088
:1007C000E3D2892B41F08DE699E0BCD2682FCE01AF
:1007D00008960E941D0E0E94E510DC01CB018819CD
:1007E0009909AA09BB09883E9340A105B10530F3D8
:1007F00021E230E048E150E0F6C166E776E0CE0164
:1008000044960E948B2367E476E0CE010E960E9408
:100810008B2365E376E0CE0108960E948B2364E784
:1008200073E08DE699E00E940D288DE699E00E9424
:10083000F1270E94E5104B015C010E94E510DC01EC
:10084000CB0188199909AA09BB09883E9340A105E3
:10085000B10570F48DE699E097D2892B71F38DE69E
:1008600099E070D2682FCE0144960E941D0EE5CF0C
:1008700023E130E042E150E0BE016C5E7F4FC801F1
:100880000E94980DB801CE0144960E94F422C8013E
:100890000E947E23CE0144960E94390D888D998D49
:1008A000892BC9F0CC88DD8867E476E0C6010E9418
:1008B000B736892B19F46CE773E009C065E376E07D
:1008C000C6010E94B736892B31F46AE873E0C8018B
:1008D0000E948B230CC01A8219821C821B821E82EA
:1008E0001D82BE016C5E7F4FC8010E94F422CE01C2
:1008F00008960E947E23CE010E960E947E23CE0192
:1009000044960E947E23B8018FE598E00E94F4226D
:10091000C80182C166E776E0CE0108960E948B236B
:1009200062E973E08DE699E00E940D288DE699E07A
:100930000E94F1270E94E5104B015C010E94E51026
:10094000DC01CB0188199909AA09BB09883E9340AB
:10095000A105B10570F48DE699E016D2892B71F3EB
:100960008DE699E0EFD1682FCE0108960E941D0E0A
:10097000E5CF24E130E040E150E0BE01685F7F4F09
:10098000C8010E94980DB801CE0108960E94F42279
:10099000C8010E947E23CE0108960E94390D8885E9
:1009A00099850097D9F00E94EC316130710581057D
:1009B0009105B9F034F46115710581059105D1F403
:1009C0000DC06F3171058105910589F063367105A0
:1009D0008105910579F460EB73E005C069E973E086
:1009E00002C061EA73E0C8010E948B231BC069EA60
:1009F00073E0F9CFDC01CB010297A109B1094D9752
:100A0000A105B10518F46AEB73E0EDCF1A821982E3
:100A10001C821B821E821D82BE01685F7F4FC8013F
:100A20000E94F422CE0108966CCF8DE699E0ACD1FD
:100A3000892B41F08DE699E085D1682FCE0108968B
:100A40000E941D0E0E94E510DC01CB018819990956
:100A5000AA09BB09883E9340A105B10530F32CE1FA
:100A600030E040E150E0BFC066E776E0CE01089696
:100A70000E948B2369EC73E08DE699E00E940D28BB
:100A80008DE699E00E94F1270E94E5104B015C0180
:100A90000E94E510DC01CB0188199909AA09BB095C
:100AA000883E9340A105B10570F48DE699E06CD1C4
:100AB000892B71F38DE699E045D1682FCE01089618
:100AC0000E941D0EE5CF26E130E043E150E08BC0EF
:100AD00066E776E0CE0108960E948B2362ED73E014
:100AE0008DE699E00E940D2869EB76E08DE699E0AD
:100AF0000E940D286DED73E08DE699E00E940D28AF
:100B000069EB76E08DE699E00E940D288DE699E08C
:100B10000E94F1270E94E5104B015C010E94E51044
:100B2000DC01CB0188199909AA09BB0980349F41CE
:100B3000A105B10570F48DE699E026D1892B71F3FA
:100B40008DE699E0FFD0682FCE0108960E941D0E19
:100B5000E5CF25E530E045E250E045C066E776E0C8
:100B6000CE0108960E948B2362ED73E08DE699E03A
:100B70000E940D2869EB76E08DE699E00E940D2831
:100B800063EE73E08DE699E00E940D2869EB76E054
:100B90008DE699E00E940D288DE699E00E94F127EC
:100BA0000E94E5104B015C010E94E510DC01CB01C5
:100BB00088199909AA09BB0980349F41A105B1058B
:100BC00070F48DE699E0E0D0892B71F38DE699E021
:100BD000B9D0682FCE0108960E941D0EE5CF21E402
:100BE00030E047E250E0BE01685F7F4FC801A0D708
:100BF000B801CE0108960E942D23C8010E947E23D1
:100C0000CE01089636D7BE01685F7F4F8FE598E02A
:100C10000E94F422CE0108960E947E23F7011082E2
:100C20001182128213821092FB06CE014A960E9414
:100C30007E2304C084E00E949F23F0CF6F960FB6FE
:100C4000F894DEBF0FBECDBFDF91CF911F910F9102
:100C5000FF90EF90DF90CF90BF90AF909F908F90DC
:100C60000895CF93DF93EC01FB0182819381A481EE
:100C7000B5818A839B83AC83BD8386819781A08560
:100C8000B1858E839F83A887B98782859385A48544
:100C9000B5858A879B87AC87BD87868597859F8723
:100CA0008E878089888B818992899A8B898B8DE246
:100CB00093E0998388838EE17396DE0153960190C9
:100CC0000D928A95E1F7FB0181A992A99AAB89ABB4
:100CD000DF91CF910895DB01109749F0ED91FC91E0
:100CE00011970190F081E02DBC01CD01199480E0B5
:100CF00090E00895FC01A089B1898C91A689B789FB
:100D000082FD0FC09C91818D8F5F8F73228D821722
:100D100049F0218DDF01A20FB11D5D969C93818F5B
:100D200008958C910895FC01538D448D252F30E05A
:100D3000842F90E0821B930B541710F0CF960895E8
:100D400001970895FC01918D828D981761F0828D35
:100D5000DF01A80FB11D5D968C91928D9F5F9F73EF
:100D6000928F90E008958FEF9FEF0895FC01918D91
:100D7000828D981731F0828DE80FF11D858D90E0FE
:100D800008958FEF9FEF0895FC01918D228D892F9B
:100D900090E0805C9F4F821B91098F739927089583
:100DA0008DE699E0F1DF21E0892B09F420E0822F24
:100DB000089588E097E0E8DF21E0892B09F420E03E
:100DC000822F0895FC01848DDF01A80FB11DA35A65
:100DD000BF4F2C91848D90E001968F739927848F5B
:100DE000A689B7892C93A089B1898C9180648C9352
:100DF000938D848D981306C00288F389E02D80813D
:100E00008F7D80830895EF92FF920F931F93CF936E
:100E1000DF93EC0181E0888F9B8D8C8D981305C04A
:100E2000E889F989808185FD23C0F62E0B8D10E0BD
:100E30000F5F1F4F0F731127E02E8C8DE8120BC030
:100E40000FB607FCFACFE889F989808185FFF5CFD5
:100E5000CE01B8DFF2CF8B8DFE01E80FF11DE35A12
:100E6000FF4FF0820B8FEA89FB898081806207C087
:100E7000EE89FF896083E889F989808180648083B5
:100E800081E090E0DF91CF911F910F91FF90EF9063
:100E90000895CF93DF93EC01888D8823C1F0EA8910
:100EA000FB89808185FD05C0A889B9898C9186FD63
:100EB0000EC00FB607FCF5CF808185FFF2CFA88961
:100EC000B9898C9185FFEDCFCE017CDFE8CFDF9132
:100ED000CF91089580E090E0892B19F06ADF8111AD
:100EE00020C080E090E0892B19F05ADF81111CC0EE
:100EF00080E090E0892B41F080E090E0892B21F0A8
:100F00000E940000811113C080E090E0892BA1F0C5
:100F100080E090E0892B81F00E94000081110AC0DE
:100F200008950E940000DDCF0E940000E1CF0E94E2
:100F30000000EACF0C94000008958F929F92AF9228
:100F4000BF92CF92DF92EF92FF920F931F93CF93B6
:100F5000DF937C018B016C0182E0C80ED11C47013C
:100F6000E5E08E0E911CC0E0D0E0F60141916F01EA
:100F700050E060E070E02AE0C8010E94A8275C0110
:100F80006EE2C8010E9406288A0D9B1DC80FD91F5A
:100F9000C814D90451F7F701458150E060E070E0D2
:100FA0002AE0C8010E94A8278C0F9D1FDF91CF91D6
:100FB0001F910F91FF90EF90DF90CF90BF90AF9077
:100FC0009F908F9008950E94AA361F920F920FB69D
:100FD0000F9211240BB60F922F933F934F935F9371
:100FE0006F937F938F939F93AF93BF93EF93FF93F1
:100FF0008DE699E0E7DEFF91EF91BF91AF919F9170
:101000008F917F916F915F914F913F912F910F90B1
:101010000BBE0F900FBE0F901F9018951F920F924E
:101020000FB60F9211240BB60F922F933F934F934D
:101030005F936F937F938F939F93AF93BF93EF9340
:10104000FF938DE699E056DEFF91EF91BF91AF914E
:101050009F918F917F916F915F914F913F912F91D0
:101060000F900BBE0F900FBE0F901F9018951F9200
:101070000F920FB60F9211240BB60F922F933F933E
:101080004F935F936F937F938F939F93AF93BF9390
:10109000EF93FF9388E097E095DEFF91EF91BF918A
:1010A000AF919F918F917F916F915F914F913F9100
:1010B0002F910F900BBE0F900FBE0F901F901895A1
:1010C0001F920F920FB60F9211240BB60F922F930F
:1010D0003F934F935F936F937F938F939F93AF93C0
:1010E000BF93EF93FF9388E097E004DEFF91EF91C9
:1010F000BF91AF919F918F917F916F915F914F9130
:101100003F912F910F900BBE0F900FBE0F901F902D
:101110001895CF93DF93282F30E0F901E85EFE4F5A
:101120008491F901E75EFD4FD491F901ED52FE4F34
:10113000C491CC2389F0811130D7EC2FF0E0EE0F71
:10114000FF1FE754FE4FA591B491EC91ED2381E090
:1011500090E021F480E002C080E090E0DF91CF9148
:101160000895BC018EEE9AE00C946923CF92DF9231
:10117000EF92FF92CF93DF936C01990FEE08FF0877
:10118000F7FE16C06DE288E097E00E940628EC01A9
:1011900044275527BA014C195D096E097F092AE0D9
:1011A00088E097E00E94A8277C01EC0EFD1E08C095
:1011B0002AE0B701A60188E097E00E94A8277C01F9
:1011C00088E097E00E94F1278E0D9F1DDF91CF915F
:1011D000FF90EF90DF90CF900895CF93DF93BC0105
:1011E00088E097E00E940F28EC0188E097E00E94D9
:1011F000F1278C0F9D1FDF91CF910895EF92FF9201
:101200000F931F93CF93DF9300D000D0CDB7DEB7FD
:101210007C018B0160E975E088E097E00E94F5278A
:10122000C801DBDF66E776E0CE0101960E948B23E2
:1012300064E975E08DE699E00E940D2869EB76E09F
:101240008DE699E00E940D28B7018DE699E00E9495
:101250000F28B8018DE699E00E940F2869EB76E02F
:101260008DE699E00E940D288DE699E00E94F12715
:1012700068EE73E080E090E070D767EA75E08DE695
:1012800099E00E94F52768EB7BE080E090E065D76D
:10129000CE0101960E947E2326960FB6F894DEBFFB
:1012A0000FBECDBFDF91CF911F910F91FF90EF90B7
:1012B00008954F925F926F927F929F92AF92BF92EA
:1012C000CF92DF92EF92FF920F931F93CF93DF9312
:1012D0005C01EC0109900020E9F72197C81BD90BAC
:1012E00074D72B013C01C12CD12C760100E010E019
:1012F0000E94E911892BE9F080915B0890915C08CC
:10130000DC01ED91FC910284F385E02D1995982E76
:101310005CD76B017C01F501E00FF11F8081891121
:1013200003C00F5F1F4F02C000E010E00C171D0745
:1013300009F14BD7DC01CB0184199509A609B7093E
:1013400089389341A105B10510F080E024C03DD754
:10135000DC01CB018C199D09AE09BF098D3D95407B
:10136000A105B10528F2C114D104E104F10409F486
:10137000BFCFEBCF0E94E911892B61F080915B0810
:1013800090915C08DC01ED91FC910284F385E02DE5
:101390001995F0CF81E0DF91CF911F910F91FF90D0
:1013A000EF90DF90CF90BF90AF909F907F906F9025
:1013B0005F904F900895CF93DF93A7E3BAE0FD01CC
:1013C000C191D191209741F049895A89EC0129892D
:1013D0003A894217530711F1DAE0E535FD0781F745
:1013E00020E030E04D915D91452B89F4220F331FB1
:1013F000F901EC5DF54F948B838B8091550A9091A8
:10140000560A01969093560A8093550A07C02F5F9B
:101410003F4F2F30310531F780E001C081E0DF918F
:10142000CF9108950F931F93CF93DF9300D000D0F7
:10143000CDB7DEB78C01FC0186816BDEF8018783B6
:101440008130C1F581858F5F8187833098F18091EC
:10145000EB0A823018F48E5F8093EB0A81E0809370
:10146000EC0AB801CE0101960E948323CE010196B9
:1014700078DECE0101960E947E23B80188E097E0D5
:101480000E940F2867EB75E088E097E00E940D2826
:10149000F801478150E060E070E02AE088E097E0E2
:1014A0000E94A82788E097E00E94F127F801818533
:1014B0008150818726960FB6F894DEBF0FBECDBF50
:1014C000DF91CF911F910F910895CF93DF9300D0BB
:1014D00000D0CDB7DEB780917F0820D690938108E9
:1014E000809380088C3B9240C4F561E08DE0ABD5E1
:1014F000809182088F5F80938208803170F18091A3
:10150000EB0A823018F48E5F8093EB0A81E08093BF
:10151000EC0A63E878E0CE0101960E948323CE01B5
:1015200001961FDECE0101960E947E2363E878E0DB
:1015300088E097E00E940F2867EB75E088E097E06D
:101540000E940D2880918008909181080FDE809183
:1015500082088F508093820803C060E08DE073D5CD
:1015600026960FB6F894DEBF0FBECDBFDF91CF91A8
:101570000895CF93DF9300D000D0CDB7DEB7809130
:101580007508C7DD9093780880937708892BA1F5BB
:10159000809176088F5F80937608833068F1809120
:1015A000EB0A823018F48E5F8093EB0A81E080931F
:1015B000EC0A69E778E0CE0101960E948323CE0110
:1015C0000196CFDDCE0101960E947E2369E778E087
:1015D00088E097E00E940F2867EB75E088E097E0CD
:1015E0000E940D288091770890917808BFDD809146
:1015F000760881508093760826960FB6F894DEBF61
:101600000FBECDBFDF91CF910895CF93DF9300D070
:1016100000D0CDB7DEB780916B0880D590936E086F
:1016200080936D08833C9140A4F180916C088F5F9A
:1016300080936C08833368F18091EB0A823018F450
:101640008E5F8093EB0A81E08093EC0A6FE678E08E
:10165000CE0101960E948323CE01019682DDCE0148
:1016600001960E947E2380916C08825380936C08BF
:101670006FE678E088E097E00E940F2867EB75E05E
:1016800088E097E00E940D2880916D0890916E0887
:101690006DDD26960FB6F894DEBF0FBECDBFDF918D
:1016A000CF9108959F92AF92BF92CF92DF92EF9227
:1016B000FF920F931F93CF93DF9300D000D0CDB74D
:1016C000DEB77C016B015C0182E0A80EB11CC50194
:1016D0000E94AB16D7011296ED91FC911397808171
:1016E0008B3521F08B3709F4A5C0AFC0F701868197
:1016F000811112C08091EA0681110BC01092E70699
:101700001092E6061092E9061092E80681E08093B6
:10171000EA0606EE16E07CC08150868300811181C6
:10172000B80184E090E0D7DA009739F0FC0111832A
:101730000083138212828C0111C08091EA0681110C
:101740000BC01092E7061092E6061092E90610927E
:10175000E80681E08093EA0606EE16E06BE5C50137
:101760000E94ED16882331F26DE5C5010E94ED1649
:10177000811147C086E0982E1A821982BE016F5FE0
:101780007F4FC7018FDF882309F4B4CFD8016D9153
:101790007C9188E090E09FDADC01892B39F011968A
:1017A0001C921E9213961C921E921297F80122818F
:1017B00033812115310551F0F90180819181009724
:1017C00011F09C01F9CFB183A08303C0F801B3836A
:1017D000A283109709F48ECFFE0131961296892DBF
:1017E00001900D928A95E1F76DE5C5010E94ED1615
:1017F000811107C06CE2C5010E94ED168111BCCFBA
:1018000079CFD70116968C9116978F5F16968C9389
:10181000F80180819181892B11F410E036C086E0B7
:1018200090E0D60111969C938E9313961C930E9381
:1018300012972AC0C7010E94BA17FC01208131818A
:10184000232B59F327E030E017C011E0873219F05D
:10185000823209F010E0C7010E940B170097E9F2ED
:10186000112341F022E030E0F6013183208393839D
:1018700082830BC021E030E0D60111963C932E9379
:1018800013969C938E93129711E0812F26960FB694
:10189000F894DEBF0FBECDBFDF91CF911F910F91A6
:1018A000FF90EF90DF90CF90BF90AF909F90089502
:1018B0008CD46093E50A7093E60A8093E70A9093CC
:1018C000E80A8091DE0A9091DF0A2091E90A3091BE
:1018D000EA0A2817390721F48091E00A9091E10A79
:1018E0009093EA0A8093E90A6091E90A7091EA0A02
:1018F00020E030E0A9018091DC0A0E94422460913E
:10190000E90A7091EA0A20E030E0A9018091DD0A3D
:101910000C9442248130910539F02091B107309127
:10192000B2072230310579F08093AF0781E090E073
:101930009093B2078093B1071092BF071092BE0731
:101940008093B00708951092B7071092B607ECCFB6
:10195000462FE5EAF7E023A922ABBC01CF010C94A6
:10196000721DCF93DF938091B307882309F448C099
:101970009091B4078091B507981709F441C0C091C0
:10198000D707D091D80788E097E00E94F1274C2F25
:1019900050E060E070E02AE088E097E00E94A8272D
:1019A00068EB75E088E097E00E940D284D2F50E02D
:1019B00060E070E02AE088E097E00E94A8276EE3EC
:1019C00088E097E00E940628CD1751F0EC2FF0E058
:1019D000E755F84F82A90E949219CF5FCF77F4CFD5
:1019E00088E097E00E94F1274091B5076091B40725
:1019F00085EA97E00E94F41E1092B4071092B50792
:101A0000DF91CF910895CF92DF92EF92FF920F93E3
:101A10001F93CF93DF936B01770FEE08FF08F7FE5C
:101A20001BC0EC016DE20E9406288C01442755275B
:101A3000BA014C195D096E097F092AE0CE010E94A6
:101A4000A827800F911FDF91CF911F910F91FF90D9
:101A5000EF90DF90CF9008952AE0B701A601DF91C3
:101A6000CF911F910F91FF90EF90DF90CF900C944A
:101A7000A827AF92BF92CF92DF92EF92FF920F937F
:101A80001F93CF93DF93DC01CD90DC901197C114AD
:101A9000D10409F442C01496CD91DC91159720979A
:101AA000E1F18C0156017501BFEFAB1ABB0AF701DA
:101AB0008081082E000C990B0E944A32892B99F7DD
:101AC0002197CC0DDD1D8881082E000C990B0E94FA
:101AD0004A32892B91F4AE014F5F5F4F4E195F0977
:101AE000D80115965C934E931497CE14DF0450F4EE
:101AF000B701C6010E94AE3605C0CE15DF0558F30A
:101B00002197E1CFD801ED91FC91119714968D9119
:101B10009C911597E80FF91F1082DF91CF911F91CB
:101B20000F91FF90EF90DF90CF90BF90AF9008950E
:101B3000BF92CF92DF92EF92FF920F931F93CF93BA
:101B4000DF937C016B01EA0189012417350720F43A
:101B50008D2FE901042F182F66E776E0C7010E9458
:101B60008B23D60114968D919C911597C817D90790
:101B700048F58017910708F48C01D601ED91FC918E
:101B80001197E00FF11FB08010824D915C91BA0166
:101B90006C0F7D1F6115710561F0FB010190002044
:101BA000E9F73197AF01461B570BC7010E944A2343
:101BB00003C0C7010E943823D601ED91FC91E00FCC
:101BC000F11FB082C701DF91CF911F910F91FF905C
:101BD000EF90DF90CF90BF900895EF92FF920F9318
:101BE0001F93CF93DF93CDB7DEB728970FB6F89446
:101BF000DEBF0FBECDBF7C01CB014AE08E010F5F7F
:101C00001F4FB8010E941232F80101900020E9F73D
:101C10003197AF01401B510BB801C7010E94C1228F
:101C200028960FB6F894DEBF0FBECDBFDF91CF91DF
:101C30001F910F91FF90EF900895CF93DF931F9224
:101C40001F92CDB7DEB769831A8241E050E0BE0132
:101C50006F5F7F4F0E94C1220F900F90DF91CF9155
:101C60000895CF92DF92EF92FF920F931F93CF933D
:101C7000DF9300D000D0CDB7DEB78C0166E776E009
:101C80000E948B236AEB75E08DE699E00E940D2897
:101C90008DE699E00E94F12798D26B017C0195D2E4
:101CA000DC01CB018C199D09AE09BF09883E934028
:101CB000A105B10560F48DE699E066D8892B79F32A
:101CC0008DE699E03FD8682FC801B7DFE8CF22E260
:101CD00030E046E150E0B801CE01019629DFBE01B7
:101CE0006F5F7F4FC8010E942D23CE0101960E9495
:101CF0007E23C801BEDEC80126960FB6F894DEBF6B
:101D00000FBECDBFDF91CF911F910F91FF90EF904C
:101D1000DF90CF900895CF92DF92EF92FF920F93D2
:101D20001F93CF93DF9300D000D0CDB7DEB78C01E7
:101D300066E776E00E948B2362EC75E08DE699E021
:101D40000E940D288DE699E00E94F1273ED26B019A
:101D50007C013BD2DC01CB018C199D09AE09BF0986
:101D6000883E9340A105B10568F48DE699E00CD852
:101D7000892B79F38DE699E00E94A206682FC801AD
:101D80005CDFE7CF29E130E04AE050E0B801CE0166
:101D90000196CEDEBE016F5F7F4FC8010E942D23EA
:101DA000CE0101960E947E23C80163DEC8012696FB
:101DB0000FB6F894DEBF0FBECDBFDF91CF911F915C
:101DC0000F91FF90EF90DF90CF900895611571050E
:101DD00051F0FB0101900020E9F73197AF01461B5C
:101DE000570B0C94C12280E008953FB7F89480917E
:101DF000F7069091F806A091F906B091FA0626B57B
:101E0000A89B05C02F3F19F00196A11DB11D3FBF32
:101E1000BA2FA92F982F8827820F911DA11DB11DC0
:101E2000BC01CD0142E0660F771F881F991F4A95BC
:101E3000D1F708950F931F93FC0102851385248524
:101E40003585401B510B620B730B77FD02C08089F7
:101E500001C080E01F910F910895FC0142835383DC
:101E60006483758386819781A085B185480F591F4A
:101E70006A1F7B1F42875387648775870895DC013B
:101E80001696ED91FC911797908115968C918095FF
:101E90008923808308950895DC01ED91FC910280EF
:101EA000F381E02D61E1199420E001972FEF8F3F3E
:101EB0009207D9F70895CF93DF93FC0120893189E8
:101EC000232B51F1EC010190F081E02D0280F38190
:101ED000E02D613149F467E71995E881F9810280C5
:101EE000F381E02D6EEE14C0633149F467E7199574
:101EF000E881F9810280F381E02D6CEE09C067373B
:101F000041F41995E881F9810280F381E02D68E8B8
:101F1000CE01DF91CF91199480E090E0DF91CF91D5
:101F200008950895DF92EF92FF920F931F93CF933E
:101F3000DF93EC01D62EEFB6F894A1DF888999895A
:101F40000596B2DF08E010E0FF24F3948F2D8D2179
:101F500039F0EE81FF8190818D81892B808302C0D1
:101F6000CE018DDF888999899FDFFF0C015011090F
:101F700069F7EE81FF8190818D81892B8083EFBE8F
:101F80008889998991DF81E090E0DF91CF911F915D
:101F90000F91FF90EF90DF90089590E0FC01319752
:101FA000E231F10508F04EC08827EE58FF4F8F4F01
:101FB0000C947D34809180008F7703C080918000E5
:101FC0008F7D80938000089580918000877FF9CF76
:101FD00084B58F7702C084B58F7D84BD08958091CC
:101FE000B0008F7703C08091B0008F7D8093B000E8
:101FF0000895809190008F7707C0809190008F7D29
:1020000003C080919000877F809390000895809115
:10201000A0008F7707C08091A0008F7D03C08091C2
:10202000A000877F8093A0000895809120018F7782
:1020300007C0809120018F7D03C080912001877FA0
:102040008093200108951F93CF93DF93282F30E0D2
:10205000F901E85EFE4F8491F901E75EFD4FD491EE
:10206000F901ED52FE4FC491CC23C1F0162F81111E
:1020700094DFEC2FF0E0EE0FFF1FE156FE4FA5912D
:10208000B4918FB7F894111105C09C91ED2FE09594
:10209000E92302C0EC91ED2BEC938FBFDF91CF9140
:1020A0001F910895CF93DF9390E0FC01E75EFD4F11
:1020B0002491FC01ED52FE4F8491882361F190E060
:1020C000880F991FFC01EB57FE4FC591D491FC017D
:1020D000E156FE4FA591B491611109C09FB7F894E4
:1020E0008881209582238883EC912E230BC0623057
:1020F00061F49FB7F8943881822F80958323888379
:10210000EC912E2B2C939FBF06C08FB7F894E881DB
:102110002E2B28838FBFDF91CF910895863308F04F
:10212000865390917B00282F2870977F922B909355
:102130007B008770806480937C0080917A0080644B
:1021400080937A0080917A0086FDFCCF80917800A0
:102150002091790090E0922B08958F929F92AF92F8
:10216000BF92CF92DF92EF92FF926B017C013DDE36
:102170004B015C01C114D104E104F104E9F035DE46
:10218000DC01CB0188199909AA09BB09883E934053
:10219000A105B10578F321E0C21AD108E108F108E0
:1021A00088EE880E83E0981EA11CB11CC114D104D6
:1021B000E104F10421F7DECFFF90EF90DF90CF90A4
:1021C000BF90AF909F908F9008952FB7F894609133
:1021D000F3067091F4068091F5069091F6062FBFF4
:1021E00008950F931F93CF93DF93EC01EE85FF8546
:1021F000309709F01995E9DF6E837F838887998787
:102200000A811B812C813D81DC01CB01800F911F54
:10221000A21FB31F8A879B87AC87BD87DF91CF91B1
:102220001F910F9108958F929F92AF92BF92CF927C
:10223000DF92EF92FF920F931F93CF93DF93EC0106
:10224000EE85FF85309709F01995BFDF4B015C01E2
:102250008E016E012EE1C20ED11CE12CF12C89A958
:102260009AA98E159F0524F1D80153968D919C91C2
:1022700054970097C1F0BFEFEB1AFB0ADC01ED9118
:10228000FC910280F381E02DB501A401199588230A
:1022900051F0F80183899489DC01ED91FC9104806F
:1022A000F581E02D19950E5F1F4F0C151D05B9F630
:1022B0008CDF6E837F83888799870A811B812C81BD
:1022C0003D81DC01CB01800F911FA21FB31F8A87C4
:1022D0009B87AC87BD87DF91CF911F910F91FF90B6
:1022E000EF90DF90CF90BF90AF909F908F90089528
:1022F0001F920F920FB60F9211242F933F938F933B
:102300009F93AF93BF938091F3069091F406A091B1
:10231000F506B091F6063091F20623E0230F2D3733
:1023200020F40196A11DB11D05C026E8230F0296D9
:10233000A11DB11D2093F2068093F3069093F4063D
:10234000A093F506B093F6068091F7069091F806F3
:10235000A091F906B091FA060196A11DB11D8093D6
:10236000F7069093F806A093F906B093FA06BF918A
:10237000AF919F918F913F912F910F900FBE0F9032
:102380001F9018950F931F93CF93DF93EC018C014F
:10239000FE0101900020E9F73197EC1BFD0BC8010D
:1023A0008C1B9D0B8E179F0778F4D8016D918D01C2
:1023B00080915B0890915C08DC01ED91FC910190AB
:1023C000F081E02D1995E4CFDF91CF911F910F910E
:1023D000089580915B0890915C08DC01ED91FC917F
:1023E0000084F185E02D19946115710579F0FB01E8
:1023F00001900020E9F73197AF01461B570BDC0134
:10240000ED91FC910280F381E02D199480E090E041
:1024100008950F931F93CF93DF9300D01F92CDB7F2
:10242000DEB78C0183E192E0F8019183808381E043
:10243000808B778766871286138614861586298394
:102440003A834B835C83C1DEF801668377838087A0
:102450009187128B018B29813A814B815C81228388
:10246000338344835583DC01CB01820F931FA41F68
:10247000B51F82879387A487B5870F900F900F9021
:102480000F90DF91CF911F910F9108951F920F929E
:102490000FB60F9211240F900FBE0F901F9018953A
:1024A0001F920F920FB60F9211240F900FBE0F9034
:1024B0001F9018951F920F920FB60F9211240F9034
:1024C0000FBE0F901F9018951F93CF93DF93EC01D1
:1024D0008091B007813019F0823049F022C061E06C
:1024E0008EE591E035DA82E08093B0071AC068EC9F
:1024F00076E087ED97E0CCD7182FE881F981048446
:10250000F585E02D60E070E0CE011995112319F0FA
:1025100081E090E002C083E090E0DF91CF911F91D5
:10252000F9C9DF91CF911F9108950F931F93CF9316
:10253000DF93CDB7DEB762970FB6F894DEBF0FBE5C
:10254000CDBF66E776E0CE0101960E948B2362EB59
:1025500074E0CE0101963ADC6AEF7AE0CE01019692
:102560000E94EE2269EC75E0CE0101962FDC6091AD
:10257000EC0A70E0CE01019630DB8091EC0A8823F2
:10258000B1F061ED75E0CE01019620DC6EEE7AE0EF
:10259000CE0107960E948323BE01695F7F4FCE0163
:1025A00001960E94EE22CE0107960E947E236AEDDC
:1025B00075E0CE0101960ADC60919A0870E0CE01C8
:1025C00001960BDB64EE75E0CE010196FFDB6091B6
:1025D000900870E0CE01019600DB6EEE75E0CE0152
:1025E0000196F4DB60916D0870916E08CE01019642
:1025F000F4DA65EF75E0CE010196E8DB60917708CB
:1026000070917808CE010196E8DA6CEF75E0CE01A2
:102610000196DCDB6091800870918108CE01019603
:10262000DCDA64E076E0CE010196D0DB6FE578E09D
:10263000CE0101960E94EE22BE016F5F7F4FCE0158
:102640000D960E9483236AE076E0CE0107960E94F1
:102650008B23BE01635F7F4FCE0107960E94FE0869
:10266000CE0107960E947E23CE010D960E947E2306
:1026700062E376E088E097E00E94F52766E776E07F
:10268000CE0107960E948B238DE699E00E94C40636
:10269000892B29F08DE699E00E94A206F5CF67E329
:1026A00076E08DE699E00E94F52760ED77E080E026
:1026B00090E053DD00E08DE699E00E94C406892B8E
:1026C000A9F08DE699E00E94A206182F682F88E0F5
:1026D00097E00E9403071B3711F0002329F0612FB8
:1026E000CE010796AADA01E01D3729F78DE699E0B9
:1026F0000E94C406892B29F08DE699E00E94A2066B
:10270000F5CF4B855C8560E070E02AE088E097E0DB
:102710000E94A82788E097E00E94F127CE01079643
:102720000E94ED0869E476E088E097E00E94F527D2
:10273000BE01695F7F4F85E698E00E94F422CE01DA
:1027400007960E947E2381E08093FB06CE010196CE
:102750000E947E2362960FB6F894DEBF0FBECDBFF7
:10276000DF91CF911F910F910895CF93DF93CDB754
:10277000DEB7E3970FB6F894DEBF0FBECDBF64E2BD
:102780007AE0CE0101960E9431060E94050BE39685
:102790000FB6F894DEBF0FBECDBFDF91CF91089585
:1027A000CF93DF93CDB7DEB7E3970FB6F894DEBFD4
:1027B0000FBECDBF64E27AE0CE0101960E943106E1
:1027C0000E94B90AE3960FB6F894DEBF0FBECDBFE4
:1027D000DF91CF910895CF93DF93CDB7DEB7E39725
:1027E0000FB6F894DEBF0FBECDBF64E27AE0CE0133
:1027F00001960E9431060E94650AE3960FB6F8948E
:10280000DEBF0FBECDBFDF91CF910895CF93DF9391
:10281000CDB7DEB7E3970FB6F894DEBF0FBECDBFDE
:1028200064E27AE0CE0101960E94310689E898E0E0
:102830000E94120AE3960FB6F894DEBF0FBECDBF1A
:10284000DF91CF910895CF93DF93CDB7DEB7E397B4
:102850000FB6F894DEBF0FBECDBF64E27AE0CE01C2
:1028600001960E94310683E998E00E94120AE396DD
:102870000FB6F894DEBF0FBECDBFDF91CF910895A4
:102880002F923F924F925F926F927F928F929F9280
:10289000AF92BF92CF92DF92EF92FF920F931F936E
:1028A000CF93DF93CDB7DEB76A970FB6F894DEBF4C
:1028B0000FBECDBFDC01ED91FC9111973197E8304F
:1028C000F10508F014C28B017C018827EC57FF4FFB
:1028D0008F4F0C947D34FD01C280D380E480F5805D
:1028E000A7019601C701B6010E946232882319F040
:1028F00068E576E092C020E030E0A901C701B601AA
:102900000E94623287FF07C06DE2C8016CD7F7FAF8
:10291000F094F7F8F09420E030E0A901C701B60187
:102920000E946232882309F47BC0A7019601C70187
:10293000B6010E949833A70196010E94623281116C
:102940006FC06FE576E069C01296ED90FC9013972A
:102950006BE5C80148D7F701E280F380E114F10488
:1029600051F0B801C70102968BDFD701ED90FC90C2
:10297000E114F10411F46DE529C06CE2C80133D70C
:10298000EDCFFD01E280F3806BE7C8012CD7D701C2
:102990001296ED90FC90139703C06CE2C80123D708
:1029A000E114F10491F0F70162817381C801BFD78E
:1029B0006AE3C80118D7B801C701049661DFD701DF
:1029C000ED90FC90E114F10441F76DE7C8010BD7DD
:1029D0008EC1FD0162817381C801A9D788C1129699
:1029E0006D917C91139719C06DE2C801FCD6F70177
:1029F0004281538164817581C80155D778C1FD0139
:102A000082819381A481B581892B8A2B8B2B19F428
:102A100062E576E002C06DE476E0C801F5D667C1F4
:102A200020E836E948E15BE4C701B6010E9428349A
:102A300087FD55C1412C512C70E2672E712C812CE1
:102A4000912CF201E75BFD4F24893589468957892E
:102A5000C701B6010E94283487FD0FC0F201EF5C68
:102A6000FD4F2489358946895789C701B6010E94DF
:102A7000C7326B017C01860C971C75946794F4E057
:102A80004F1A510888EE48168FEF5806D1F6552494
:102A90005A9420E030E0A901C701B6010E94283411
:102AA000181694F52CEA35EC47E257E3C701B60156
:102AB0000E946232181644F1BFEF5B1629F1952D82
:102AC000A4E09A0250011124F501E75EFD4F208138
:102AD000318142815381C701B6010E94623287FF72
:102AE0000FC0F501E75BFD4F2081318142815381A9
:102AF000C701B6010E94C7326B017C018618970896
:102B0000759467945A94D8CFC701B6010E94FC33DC
:102B10002B013C016B8B7C8B8D8B9E8B46E0A42E16
:102B200080E492E4AFE0B0E08F8B988FA98FBA8FEA
:102B3000BA2CAA24AA94AB0C8B899C89AD89BE8936
:102B40000A97A105B105E8F06F89788D898D9A8D76
:102B50002AE030E040E050E00E943F342F8B388F75
:102B6000498F5A8F6B897C898D899E892AE030E054
:102B700040E050E00E943F342B8B3C8B4D8B5E8BB2
:102B8000D7CFC301B2010E9466329B01AC01C701DD
:102B9000B6010E9497336B017C016F89788D898D16
:102BA0009A8D0E9466329B01AC01C701B6010E945A
:102BB000C7326B8B7C8B8D8B9E8B0E94FC336B01A1
:102BC0007C010E9466329B01AC016B897C898D89F6
:102BD0009E890E9497339B01AC010E9498330E940A
:102BE000FC33C60ED71EE81EF91E8F89988DA98D5D
:102BF000BA8DC816D906EA06FB0610F19FEF491AEE
:102C0000590A690A790A8114910489F0AAE04A16DE
:102C100051046104710458F0BFEF8B1A9B0AC12C58
:102C2000D12C7601412C512C3201439409C0C12C86
:102C3000D12C760105C01B147CF469017A01BA9489
:102C4000C701B6012AE030E040E050E00E943F3486
:102C5000672B682B692B79F3AB2CB301A201C80158
:102C600022D6BB2039F1188A3E01E0E16E0E711CBC
:102C70007A8A698A2AE0222E312C412C512CAA947E
:102C8000BFEFAB1669F0C701B601A20191010E9426
:102C90003F34605DD3016E933D0169017A01EFCF4E
:102CA00069897A896B1971098EE2FB018293BF01F0
:102CB000C801AAD597FE09C06CE576E0C801A4D585
:102CC000662777276819790907C08114910479F07C
:102CD00065E6C80188D5B401C801BBD508C080E24B
:102CE000682E712C95E0592E812C912CD2CE6A96AB
:102CF0000FB6F894DEBF0FBECDBFDF91CF911F910D
:102D00000F91FF90EF90DF90CF90BF90AF909F908A
:102D10008F907F906F905F904F903F902F9008958D
:102D20000F931F93CF93DF938B01FC01C281D3815B
:102D3000209759F06A817B81C8010E94B736892BA0
:102D400021F00990D881C02DF3CFCE01DF91CF9132
:102D50001F910F910895FC01A081B1818C918D305C
:102D600051F024F489508230B8F505C0803219F052
:102D70008F3219F0089511962CC011968C911197ED
:102D80008A3219F08F32D1F008951196B183A08361
:102D9000A081B181CD0101969183808311968C91A0
:102DA00011978823C9F08A3299F712968C9112975D
:102DB0008F3271F713960DC08A3071F2A081B18104
:102DC000CD0101969183808311968C918111F4CF6E
:102DD00003C0B183A083C0CF08950F931F93CF93F7
:102DE000DF931F92CDB7DEB78C016983B4DFD801C2
:102DF000ED91FC91119780816981861305C0319610
:102E0000ED93FC9381E001C080E00F90DF91CF91C2
:102E10001F910F910895EF92FF920F931F93CF93FD
:102E2000DF938C01DC011496CD91DC911597EA803B
:102E3000FB808E819F81E80EF91EC80102968BDF10
:102E4000D8011296ED91FC91139790819732A9F1D8
:102E5000923299F180ED890F8A3078F081EA890FFA
:102E60008C3158F08FEB890F8A3138F09B3229F082
:102E700083ED890F823008F060C0F8012281338130
:102E80002F5F3F4F338322832E813F81A9014F5F04
:102E90005F4F6C817D816417750740F06A817B818B
:102EA000FB01E20FF31F5F834E839083D8011296DC
:102EB000ED91FC9113979081CDCF3196D801139667
:102EC000FC93EE931297D8011296ED91FC91139713
:102ED0002081222391F1AF014F5F5F4F13965C93E6
:102EE0004E931297291749F12C35A9F42181ACE6AC
:102EF000B6E08C91882339F0821303C011962C918F
:102F000002C01296F6CF2223C1F03296D801139652
:102F1000FC93EE9312974E815F81BA016F5F7F4FF2
:102F2000EC81FD81E617F70770F2EA81FB81E40F7F
:102F3000F51F7F836E832083C6CF8E819F819C0186
:102F40002F5F3F4F4C815D814217530748F04A8104
:102F50005B81FA01E80FF91F3F832E83108202C0C4
:102F6000E12CF12CC701DF91CF911F910F91FF90C0
:102F7000EF9008959F92AF92BF92CF92DF92EF921F
:102F8000FF920F931F93CF93DF9300D000D0CDB764
:102F9000DEB7FC019681911112C08091000781116A
:102FA0000BC01092FD061092FC061092FF061092C4
:102FB000FE0681E0809300070CEF16E094C07F01CD
:102FC0009150968300811181B80184E090E00E94C5
:102FD0006B06009739F0FC01118300831382128283
:102FE0008C0111C08091000781110BC01092FD0669
:102FF0001092FC061092FF061092FE0681E080936C
:1030000000070CEF16E06701F2E0CF0ED11C6BE772
:10301000C601E3DE882309F4C0CF6DE7C601DDDE1B
:1030200081115DC086E0982EC701F5DE5C01892B19
:1030300009F4B3CF6AE3C601D0DE882309F4ADCF2B
:103040001A821982BE016F5F7F4FC7010E94520B27
:10305000882309F4A2CFB501C80162DEDC01892B07
:1030600059F5F801608171818AE090E00E946B0659
:10307000DC01892B39F011961C921E9215961C9238
:103080001E921497F801228133812115310551F0E8
:10309000F90180819181009711F09C01F9CFB183F2
:1030A000A08303C0F801B383A283109709F475CFFE
:1030B0001396BC92AE921297FE0131961496892D0A
:1030C00001900D928A95E1F76DE7C60186DE8111C8
:1030D00006C06CE2C60181DE8111A6CF5ECFF7018A
:1030E00086818F5F8683C80126960FB6F894DEBF6F
:1030F0000FBECDBFDF91CF911F910F91FF90EF9049
:10310000DF90CF90BF90AF909F900895CF92DF92C5
:10311000EF92FF92DB011296CD90DD90ED90FC9046
:103120001597FC01C186D286E386F4861092AC071F
:103130001092AB070190F081E02D0484F585E02D1D
:1031400060E070E0FF90EF90DF90CF90199480E006
:1031500090E0089580E090E0089580E0089508955B
:1031600080E090E00895AF92BF92DF92EF92FF92DD
:103170000F931F93CF93DF93DC01FB0180818823A2
:1031800099F130E0E0E0F0E009C0311132C051E0E7
:103190009F5F9F77511132C04F5F4F77421789F180
:1031A000942FED01C90FD11DAC80B12CEB01CE0FD6
:1031B000DF1FC8810C2E000CDD0BAC16BD0629F7F5
:1031C000311101C0D92E3196EB01CE0FDF1F88815E
:1031D00081110CC00115110511F0F801D082E11424
:1031E000F10411F0F701908381E00CC051E031E06F
:1031F000CFCF50E030E0E0E0F0E0CACF9213D1CF83
:10320000CBCF80E0DF91CF911F910F91FF90EF9096
:10321000DF90BF90AF9008950895CF93DF93EC01B6
:103220002396D093BF07C093BE071092AF0781E0EB
:103230008093B0078FE090E09093B2078093B1073E
:103240001092B4071092B50768EE73E080E090E04A
:103250000E94AD1062EA76E087EA97E00E940D28AE
:1032600068EE73E080E090E00E94AD1061E080E8DD
:1032700092E00E94A80C84E090E09093B7078093BE
:10328000B6078091D8078093D70784EC97E00E9417
:103290004C0F64E670E080E090E00E94AD1081E0A9
:1032A00090E00E948A0C9091D8078091D707981BD4
:1032B0009F7739F78091B8079091B9078C179D07D0
:1032C00089F08091BA079091BB078C179D0769F030
:1032D0008091BC079091BD078C179D0779F482E01F
:1032E00090E005C080E090E002C081E090E0880FAF
:1032F000991FFC01EB55F84F148A138A8091AF0790
:1033000090E0DF91CF9108950E94B10C8091AF07BA
:1033100090E00895FB01DA0184918D93319681113B
:10332000FBCF0895CF9390EE980F9F3510F4682F40
:1033300010C0C82F65E288E097E00E9406284C2F55
:1033400050E060E070E02AE088E097E00E94A82763
:1033500065E288E097E0CF910C9406288F929F92C7
:10336000AF92BF92CF92DF92EF92FF920F931F9393
:10337000CF93DF931F921F92CDB7DEB76C014A0146
:103380005901FC0121814081CE0102967C0100E0BF
:1033900010E0C601E8DE811102C080E02AC08A8107
:1033A00041E0480F4A83F6012181E12CF12C8E0186
:1033B0000F5F1F4FB401C601D6DE882371F39A81D7
:1033C00049814F7750E0F501BF016A197B09292F28
:1033D00030E02417350749F0D601A20FB31F149629
:1033E0002C9121939F5F9F77EFCFF501E60FF71F99
:1033F00010820F900F90DF91CF911F910F91FF904E
:10340000EF90DF90CF90BF90AF909F908F900895F6
:10341000AF92BF92CF92DF92EF92FF920F931F93E2
:10342000CF93DF931F921F92CDB7DEB76C01B42EFE
:10343000A22EFC0121814081CE0101967C018E01EA
:103440000E5F1F4FC6018FDE8823A9F0AA2051F01E
:10345000BB2021F099819F5F9F7701C09A81F6017F
:10346000908309C0BB2021F099819F5F9F7701C0A5
:103470009A81F60191830F900F90DF91CF911F9168
:103480000F91FF90EF90DF90CF90BF90AF90089595
:10349000EF92FF920F931F93FC0121814081E12C59
:1034A000F12C00E010E05FDE1F910F91FF90EF9094
:1034B00008950F931F93CF93DF93CDB7DEB72C976B
:1034C0000FB6F894DEBF0FBECDBF8C019091B00750
:1034D0009230F1F018F4913041F094C0933009F437
:1034E00057C0943009F45FC08DC060E084E792E07B
:1034F0000E94A80CE091AB07F091AC07309709F45B
:1035000075C0808180538A3008F470C061E36FC059
:1035100068EC76E087ED97E0BBDF8823B1F160E0EF
:1035200089E692E00E94A80C66EA76E087EA97E0D6
:103530000E940D286091AB077091AC076115710571
:1035400029F087EA97E00E940D2806C067EA77E035
:10355000C80107960E949D0762E287EA97E00E94F1
:1035600006286CE287EA97E00E9406286091AD0782
:103570007091AE0787EA97E00E94030D6DE087EA3D
:1035800097E00E94062883E00BC083E090E02BC008
:1035900068EC76E087ED97E07BDF8823B1F384E089
:1035A0008093B0072FC0AE014F5F5F4F6FE572E0B1
:1035B000C8010396AFDEBE016F5F7F4F87ED97E0D6
:1035C00067DF882311F385E090E09093B70780933D
:1035D000B60721E041E0BE016F5F7F4F87ED97E0C6
:1035E00017DF81E090E00E948A0C0CC060E387EA5C
:1035F00097E00E9406286DE087EA97E00E9406287F
:1036000082E0CECF2C960FB6F894DEBF0FBECDBFB2
:10361000DF91CF911F910F9108955093AE07409382
:10362000AD07FC01368725877093AC076093AB0725
:10363000AC014D5F5F4F5093BF074093BE071092A0
:10364000AF0721E02093B0072EE030E03093B207BF
:103650002093B1071092B4071092B5072091B807D4
:103660003091B907232B79F02091BA073091BB072D
:10367000232B61F02091BC073091BD07232B79F4F7
:1036800022E030E005C020E030E002C021E030E080
:10369000220F331FF901EB55F84F548B438B09DF91
:1036A0008091AF0790E00895CF92DF92EF92FF9262
:1036B0000F931F93CF93DF931F92CDB7DEB76C01AB
:1036C0007B018C010C5F1F4F66E776E0C8014983E0
:1036D0000E948B23B701C801FCD74981F6014083C2
:1036E0000F90DF91CF911F910F91FF90EF90DF909E
:1036F000CF900895CF92DF92EF92FF920F931F9396
:10370000CF93DF931F92CDB7DEB76C017B018C01A5
:103710000C5F1F4F66E776E0C8014983FCD7B7010D
:10372000C801D7D74981F60140830F90DF91CF912F
:103730001F910F91FF90EF90DF90CF900895CF935E
:10374000DF93EC016BEF73E088E097E00E940D28B7
:10375000CE010E94ED0860E08E81DF91CF910C9444
:103760005210EF92FF920F931F93CF93DF931F920C
:10377000CDB7DEB77C018B0166E776E04983CBD716
:10378000B801C701A6D74981F70146830F90DF91A1
:10379000CF911F910F91FF90EF900895CF92DF92FC
:1037A000EF92FF920F931F93CF93DF931F92CDB7AA
:1037B000DEB76C017B018C010C5F1F4F66E776E082
:1037C000C8014983A8D7B701C80183D74981F60149
:1037D00040830F90DF91CF911F910F91FF90EF9059
:1037E000DF90CF900895CF93DF93EC01E881F981CA
:1037F000808191810E941D0E8A819B8101969B830D
:103800008A83DF91CF910895EF92FF920F931F93D8
:10381000CF93DF93EC0108811981D8018D919C91A0
:10382000FC01E480F5800E94E60ED801ED91FC9148
:10383000848195812A813B81280F391F2E193F09E8
:103840003B832A83DF91CF911F910F91FF90EF90DF
:1038500008950F931F93CF93DF93CDB7DEB766978D
:103860000FB6F894DEBF0FBECDBF8C01CB011E8A10
:10387000FE0176962AE030E0B9010E942C3490E3F4
:10388000980F9293CB010097B9F7BF01C801BCDF35
:1038900066960FB6F894DEBF0FBECDBFDF91CF9115
:1038A0001F910F9108958F929F92AF92BF92EF92C6
:1038B000FF920F931F93CF93DF93CDB7DEB7669739
:1038C0000FB6F894DEBF0FBECDBF7C011E8A8E01FD
:1038D0000A5E1F4F8AE0882E912CA12CB12CCB01BF
:1038E000BA01A50194010E943F34942F852F605D99
:1038F000F80162938F01A901692F782F41155105B5
:103900006105710561F7BF01C7017EDF66960FB6DD
:10391000F894DEBF0FBECDBFDF91CF911F910F9105
:10392000FF90EF90BF90AF909F908F900895FF927F
:103930000F931F93CF93DF936115710541F468E5F1
:1039400073E0DF91CF911F910F91FF905DCF8B01BD
:10395000EC0162E2CE0147DFF80161918F0166233D
:1039600051F0E8E6F6E0F080FF20A1F39181961790
:1039700051F03296F8CF62E2CE01DF91CF911F91E4
:103980000F91FF9030CF6CE5CE012DDF6F2DE2CF90
:1039900080E090E0089580E090E00895089580E050
:1039A00090E0089580E090E0089580E090E0089530
:1039B000089580E090E0089580E090E0089581E02F
:1039C0002091B6073091B7072530310509F080E026
:1039D000089581E02091B6073091B7072530310571
:1039E00009F080E0089580E090E0089580E090E0A4
:1039F000089581E02091B6073091B7072530310551
:103A000009F080E00895089580E090E00895909195
:103A1000D8078091D707891728F48091D80790910B
:103A2000D70705C08091D8079091D7078058891B88
:103A300039F0E091D707F0E0E755F84F82A901C0CF
:103A400080E0082E000C990B089508950895CF93F7
:103A5000DF93EC0102969093BF078093BE0710920C
:103A6000AF0781E08093B00785E090E09093B207C4
:103A70008093B1071092B4071092B507CE010BD511
:103A8000E881F9810088F189E02DCE011995892B13
:103A900039F464E670E080E090E00E94AD10F0CF71
:103AA0008091AF0790E0DF91CF9108958091B607A4
:103AB0009091B707059721F084E090E00E948A0C6E
:103AC0008091D8079091D707891B8F7719F081E0F3
:103AD00090E002C084E090E00E948A0C8091AF07E1
:103AE00090E00895CF92DF92FF920F931F93CF93B0
:103AF000DF931F92CDB7DEB78C016B01F601F49016
:103B0000FF2059F0D801ED91FC910280F381E02D66
:103B10006F2DC801498319954981BFEFCB1ADB0A84
:103B2000F110ECCF442331F06FEA76E0C801029641
:103B30000E940D2881E090E00F90DF91CF911F91BE
:103B40000F91FF90DF90CF9008958091B6079091EC
:103B5000B707059721F487EA97E00C940D2808959C
:103B60000E94B10C8091AF0790E008950E94B10CC3
:103B70008091AF0790E00895CF938091D7079091FF
:103B8000D8078150891B8F7731F19091D7078091A9
:103B9000D807981771F0E091D707F0E0E755F84F94
:103BA00082A99091D7079F5F9F779093D707C82FDF
:103BB00001C0C0E08091D7079091D8078150891B40
:103BC0008F77843621F484EC97E00E944C0F8C2F81
:103BD000CC0F990B02C080E090E0CF9108958091C6
:103BE000B6079091B707059721F487EA97E00C9400
:103BF000062808950F931F93CF93DF9300D0CDB77E
:103C0000DEB78C019091B007923081F050F4913082
:103C100009F06EC061E080EB92E00E94A80C82E0A7
:103C20003DC0933071F1943011F162C08DE0898311
:103C30008AE08A831B82BE016F5F7F4F87ED97E02A
:103C400027DC8823D9F060E08EE992E00E94A80C7E
:103C50006091AD077091AE0787EA97E00E94030D6F
:103C60006DE087EA97E00E94062883E017C068ECC1
:103C700076E087ED97E00CDC811113C083E090E0E3
:103C800035C068EC76E087ED97E002DC8823B1F37D
:103C900061E082E992E00E94A80C84E08093B00782
:103CA00027C08091B8079091B907892B79F080914E
:103CB000BA079091BB07892B61F08091BC07909166
:103CC000BD07892B89F422E030E005C020E030E018
:103CD00002C021E030E0220F331FF901EB55F84F0D
:103CE0000E5F1F4F148B038B81E090E00E948A0CC3
:103CF0000F900F900F90DF91CF911F910F9108952A
:103D0000CF93DF93C5EAD7E0798768879C012E5F60
:103D10003F4F3A8F298F1A8621E02B8724E130E02C
:103D20003D872C871F86188A65DF8A8590E0DF91A2
:103D3000CF91089585EA97E00C94AD318091B0075A
:103D4000813019F08230B9F0089582E08093B00795
:103D500060E08EEC92E00E94A80C6091AB0770913D
:103D6000AC0787EA97E00E940D286EEA76E087EAC2
:103D700097E00C940D2861EB76E087ED97E088DB07
:103D8000882319F081E090E002C083E090E00C9479
:103D90008A0C2091B6073091B707235031092230A1
:103DA000310518F082E090E008957093AC076093BD
:103DB000AB079C012E5F3F4F3093BF072093BE0798
:103DC0001092AF0721E02093B00724E030E0309359
:103DD000B2072093B1071092B4071092B507AEDF77
:103DE0008091AF0790E00895AF92BF92CF92DF929B
:103DF000FF920F931F93CF93DF931F92CDB7DEB740
:103E00008C01F62E5C0183E1A80EB11C6801A9E1CA
:103E1000CA0ED11CF501819191915F01009749F182
:103E2000DC01ED91FC910280F381E02D6F2D49833F
:103E300019954981AC14BD0419F0882359F31DC0AC
:103E400081111BC0F801818D928D0097B1F0DC01CA
:103E5000ED91FC910190F081E02D6F2D0F90DF919D
:103E6000CF911F910F91FF90DF90CF90BF90AF90B7
:103E70001994EC15FD0571F6E5CF0F90DF91CF9108
:103E80001F910F91FF90DF90CF90BF90AF9008955A
:103E9000FC012685222319F06787408B0895A4CF63
:103EA0008091D8079091D707891B8F7741F0809137
:103EB000D8078093D70784EC97E00C944C0F81E0EF
:103EC00090E00C948A0CE5EAF7E09C012D5F3F4FEF
:103ED000328F218F128621E0238723E130E035875E
:103EE00024871786108ADCCF2091B8073091B90754
:103EF000232B79F02091BA073091BB07232B61F077
:103F00002091BC073091BD07232B81F422E030E0E3
:103F100005C020E030E002C021E030E0220F331F76
:103F2000F901EB55F84F0296948B838B0895FC01B1
:103F3000778366830895CF93DF93EC01E881F9815D
:103F40000684F785E02D19958E819F81DF91CF91B1
:103F500008950895CF93DF93C5EAD7E01A8621E04C
:103F60002B879C012E5F3F4F3A8F298F2AE030E04C
:103F70003D872C871F86188A0E9464128A8590E0EC
:103F8000DF91CF9108950F931F939B018A0149EB15
:103F900056E063EB76E087ED97E0E0D981E090E0D2
:103FA0001F910F9108950F931F93CF93DF93EC010F
:103FB0008B0160E088EF92E00E94A80CB80187EACC
:103FC00097E00E940D286BEB76E087EA97E00E946D
:103FD0000D28E881F9810484F585E02D61E070E029
:103FE000CE01199581E090E0DF91CF911F910F9163
:103FF00008950E94B10C8091AF0790E00895CF938F
:10400000DF93EC019091B007913019F09230B1F04C
:1040100025C082E08093B00760E08FEE92E00E94BE
:10402000A80C6C817D8187EA97E00E94030D6FEAFE
:1040300076E087EA97E0DF91CF91EFC768EC76E012
:1040400087ED97E025DA882319F081E090E002C03F
:1040500083E090E0DF91CF910C948A0CDF91CF91B7
:1040600008950F931F93CF93DF938C01C5E0D0E0A9
:104070008091D8078093D70784EC97E00E944C0F7B
:104080006AE070E080E090E00E94AD10219781F737
:10409000C80102969093BF078093BE071092AF07A6
:1040A00081E08093B00787E090E09093B20780931F
:1040B000B1071092B4071092B507C801DF91CF91F4
:1040C0001F910F919CCFFC012681211108C021E096
:1040D000268341E068E974E087ED97E099D99091F3
:1040E000D8078091D707891728F48091D807909135
:1040F000D70705C08091D8079091D7078058891BB2
:1041000039F0E091D707F0E0E755F84F82A901C0F8
:1041100080E0082E000C990B08950F931F93CF9306
:10412000DF93EC018E81811109C081E08E8321E053
:1041300041E068E974E087ED97E06AD99091D7078C
:104140008091D807981769F0E091D707F0E0E7551C
:10415000F84F02A98091D7078F5F8F778093D70799
:1041600001C000E08985882339F019866EEB76E07E
:1041700087ED97E08DD988878885811133C08F813D
:10418000882399F18091D7079091D8078150891B96
:104190008F77002E000C110B8F3709F054C08091DF
:1041A000D8078093D7071F8281E089872296D09312
:1041B000BF07C093BE071092AF078093B00710925D
:1041C000B2071092B1071092B4071092B50784ECB1
:1041D00097E00E944C0F6AE070E080E090E00E945F
:1041E000AD1031C06EEB76E002C064EC76E087ED96
:1041F00097E04ED9882321F0802F000F990B24C01F
:104200008091D8078093D7072296D093BF07C09399
:10421000BE071092AF0781E08093B0071092B207FB
:104220001092B1071092B4071092B50784EC97E092
:104230000E944C0F6AE070E080E090E00E94AD10B8
:1042400080E090E001C0C801DF91CF911F910F91F4
:1042500008951F93CF93DF93EC018091B0078130D5
:1042600019F0823051F065C061E088ED92E00E9463
:10427000A80C82E08093B0075CC09091D707809132
:10428000D8079150981B9F7781E0953008F080E027
:104290008F8321E041E06BEC76E087ED97E0B8D8C2
:1042A000182F9091D7079F5F60E040E020E030E05A
:1042B0007AE08091D807981711F1E92FF0E0E755DF
:1042C000F84F52A9503219F4411105C015C05D32A2
:1042D00011F4442379F080ED850F8A3080F4729FC9
:1042E000F001739FF00D11249F01250F311D205304
:1042F000310901C061E041E09F5F9F77DACF66231B
:1043000019F03195219531093D832C836EEB76E0D0
:1043100087ED97E0BDD888871986111103C084E026
:1043200090E002C081E090E0DF91CF911F910C946A
:104330008A0CDF91CF911F910895CF93DF93FC01F9
:104340001682C5EAD7E09C012E5F3F4F3A8F298F36
:104350001A8621E02B8726E030E03D872C871F86D8
:10436000188A77DF8A8590E0DF91CF9108951F93B7
:10437000CF93DF93EC018091B007813019F0823048
:1043800051F024C061E084E093E00E94A80C82E038
:104390008093B0071BC068EC76E087ED97E078D893
:1043A000182FE881F9810484F585E02D63E070E041
:1043B000CE011995112319F081E090E002C083E04D
:1043C00090E0DF91CF911F910C948A0CDF91CF91F7
:1043D0001F910895CF93DF93C5EAD7E01A8621E0B5
:1043E0002B879C012E5F3F4F3A8F298F29E030E0C9
:1043F0003D872C871F86188ABADF8A8590E0DF9177
:10440000CF9108950F931F93FC019091B0079130C5
:10441000D1F0923001F5048115812091AB073091E4
:10442000AC0749EB56E062ED76E087ED97E00E943D
:10443000AE198091D8078093D70781E090E01F9153
:104440000F910C948A0C61E08CEF92E00E94A80C12
:1044500082E08093B0071F910F910895CF93DF936F
:10446000C5EAD7E07F836E83FC01558344831A86B7
:1044700021E02B879C012E5F3F4F3A8F298F2BE045
:1044800030E03D872C871F86188ABCDF8A8590E044
:10449000DF91CF9108958091B007813019F082307B
:1044A00071F0089582E08093B0076AE185EA97E0B1
:1044B0000E94AD316FEA76E087EA97E0AEC568EC1E
:1044C00076E087ED97E00E94481A882319F081E092
:1044D00090E002C083E090E00C948A0C0895CF92A3
:1044E000DF92EF92FF920F931F93CF93DF936C01B4
:1044F0007A018B01C0E0D0E0CE15DF0589F0D8014C
:104500006D918D01D601ED91FC910190F081E02D2E
:10451000C6011995892B11F47E0102C02196ECCFBA
:10452000C701DF91CF911F910F91FF90EF90DF9026
:10453000CF9008950F931F93CF93DF93EC01888161
:104540009981009729F02A813B812617370788F443
:104550008B016F5F7F4F0E94C635009761F0998392
:1045600088831B830A832C813D81232B11F4FC015A
:10457000108281E001C080E0DF91CF911F910F9107
:104580000895EF92FF920F931F93CF93DF93FC0157
:10459000248135816115710511F480E018C0411541
:1045A0005105A1F07B01EC018A01020F131FB80134
:1045B000C1DF882391F3288139818C819D81B701E6
:1045C000820F931F0E94C0361D830C8381E0DF9110
:1045D000CF911F910F91FF90EF900895FB014481BF
:1045E000558160817181CDCF0F931F93CF93DF935E
:1045F0008C01EB01FC01808191810097B1F0688111
:1046000079816115710579F0428153812C813D8159
:104610004217530740F00E94C0368C819D81F801FB
:104620009583848313C00E942E3588819981F80177
:10463000918380838A819B81938382838C819D81F6
:1046400095838483198218821B821A821D821C82A0
:10465000DF91CF911F910F910895CF93DF93EC01DC
:104660008617970709F0C0DFCE01DF91CF9108953B
:10467000CF93DF93EC0188819981009711F00E941C
:104680002E35198218821D821C821B821A82DF91AC
:10469000CF910895EF92FF920F931F93CF93DF93E3
:1046A000EC017B018A01BA0145DF811103C0CE0113
:1046B000DFDF07C01D830C83B701888199810E94C9
:1046C000C036CE01DF91CF911F910F91FF90EF90F7
:1046D0000895CF93DF93EC01FB018617970751F004
:1046E000608171816115710521F044815581D2DFAE
:1046F00001C0BEDFCE01DF91CF910895FC01808122
:1047000091810C942E35FC01118210821382128249
:1047100015821482DECFFC01118210821382128274
:10472000158214826115710549F0FB01019000208A
:10473000E9F73197AF01461B570BACCF0895909125
:10474000060298133DC0E8E0F3E0E4919FEF9093F8
:104750000602E230C9F050F4EE2399F0E13081F521
:1047600090916F009D7F90936F002AC0E43019F103
:10477000E0F0E53029F5909173009D7F90937300F0
:104780001FC010926E001CC0909170009D7F90938E
:10479000700091E09093B0009091B100987F946088
:1047A0009093B1001092B3000BC0909171009D7F67
:1047B0009093710005C0909172009D7F909372005C
:1047C00060E00C9423101F920F920FB60F921124E9
:1047D0000BB60F922F933F934F935F936F937F93FB
:1047E0008F939F93AF93BF93EF93FF938091C70BEA
:1047F0009091C80BA091C90BB091CA0B892B8A2B41
:104800008B2B51F18091C60BE091C40BF091C50B3D
:104810009081892780838091C70B9091C80BA091CC
:10482000C90BB091CA0B181619061A061B06BCF460
:104830008091C70B9091C80BA091C90BB091CA0B86
:104840000197A109B1098093C70B9093C80BA0935E
:10485000C90BB093CA0B03C08091060270DFFF91B1
:10486000EF91BF91AF919F918F917F916F915F91E8
:104870004F913F912F910F900BBE0F900FBE0F9055
:104880001F9018953F924F925F926F927F928F92F6
:104890009F92AF92BF92CF92DF92EF92FF920F93CF
:1048A0001F93CF93DF9300D01F92CDB7DEB72901BE
:1048B0003A0190910602981721F09F3F09F032C308
:1048C00004C0E8E0F3E0349004C180930602E8E01D
:1048D000F3E0E491EF3F09F425C3E23009F480C02E
:1048E00074F5EE2309F45BC0E13009F0F1C01092D9
:1048F00080001092810090918100986090938100D7
:1049000090918100916090938100282F30E0F9010F
:10491000ED52FE4FE491F0E0EE0FFF1FE156FE4F27
:10492000459154915093AC0B4093AB0BF901E75E6A
:10493000FD4FE491E093AA0B33243394CCC0E430D0
:1049400009F49EC00CF474C0E53009F0C1C01092A7
:1049500020011092210190912101986090932101F2
:1049600090912101916090932101482F50E0FA012C
:10497000ED52FE4FE491F0E0EE0FFF1FE156FE4FC7
:10498000259134913093A30B2093A20BFA01E75E9B
:10499000FD4FE491E093A10BB5E03B2E9CC014BC0D
:1049A00015BC94B5926094BD95B5916095BD282FC6
:1049B00030E0F901ED52FE4FE491F0E0EE0FFF1F01
:1049C000E156FE4F459154915093AF0B4093AE0B7F
:1049D000F901E75EFD4FE491E093AD0B312C7BC014
:1049E0001092B0001092B1009091B000926090933C
:1049F000B0009091B10091609093B100282F30E009
:104A0000F901ED52FE4FE491F0E0EE0FFF1FE15689
:104A1000FE4F459154915093C50B4093C40BF9013F
:104A2000E75EFD4FE491E093C60B52E0352E53C094
:104A30001092900010929100909191009860909344
:104A4000910090919100916090939100282F30E017
:104A5000F901ED52FE4FE491F0E0EE0FFF1FE15639
:104A6000FE4F459154915093A90B4093A80BF90127
:104A7000E75EFD4FE491E093A70B23E0322E2BC0BD
:104A80001092A0001092A1009091A10098609093C4
:104A9000A1009091A10091609093A100282F30E097
:104AA000F901ED52FE4FE491F0E0EE0FFF1FE156E9
:104AB000FE4F459154915093A60B4093A50BF901DD
:104AC000E75EFD4FE491E093A40B04E0302E03C0B9
:104AD0003E2E37FC27C28B0161E00E945210480134
:104AE000A12CB12C832D8D7F09F0BBC060E072E159
:104AF0008AE790E0A50194010E94613429833A83FA
:104B00004B835C8369017A0121E0C21AD108E10874
:104B1000F1088FEFC816D104E104F10409F008F49C
:104B20004CC060E472E48FE090E0A50194010E9423
:104B3000613469017A0191E0C91AD108E108F108EC
:104B4000E2E03E1220C0FFEFCF16D104E104F104F1
:104B500009F008F4E5C160E970ED83E090E0A5019B
:104B600094010E94613469017A0181E0C81AD10878
:104B7000E108F1089FEFC916D104E104F10409F03E
:104B8000D0F583E067C0EFEFCE16D104E104F10465
:104B9000B1F0A8F068E478EE81E090E0A50194011E
:104BA0000E94613469017A01F1E0CF1AD108E1086D
:104BB000F108332009F45AC1AAC181E001C082E0A2
:104BC0003320A1F047C089819A81AB81BC812AE062
:104BD000B595A795979587952A95D1F76C017D0195
:104BE000F1E0CF1AD108E108F10885E095B5987F8A
:104BF000892B85BDA6C068E478EE81E090E0A50130
:104C000094010E94613469017A0181E0C81AD108D7
:104C1000E108F1089FEFC916D104E104F10409F09D
:104C200008F422C164E274EF80E090E0A5019401F1
:104C30000E94613469017A0181E0C81AD108E10853
:104C4000F1089FEFC916D104E104F10411F008F056
:104C50002FC185E09091B100987F892B8093B1009E
:104C600070C060E072E18AE790E0A50194010E94C3
:104C7000613469017A01F1E0CF1AD108E108F10845
:104C8000C114D10421E0E206F10488F068E478EE72
:104C900081E090E0A50194010E94613469017A01EC
:104CA00081E0C81AD108E108F10883E001C081E081
:104CB00091E0391210C090918100987F892B8093E8
:104CC0008100411451046104710409F03FC02FEFC9
:104CD0003FEFA90171C0E3E03E120FC09091910037
:104CE000987F892B809391004114510461047104D1
:104CF00069F52FEF3FEFA90181C0F4E03F120FC02B
:104D00009091A100987F892B8093A10041145104B8
:104D100061047104D9F42FEF3FEFA90181C025E0B0
:104D200032120FC090912101987F892B809321012D
:104D3000411451046104710449F42FEF3FEFA901BC
:104D400081C0411451046104710471F0D801AA0FAB
:104D5000BB1FA30192010E947E3328EE33E040E0A6
:104D600050E00E943F3403C02FEF3FEFA90182E0E3
:104D70003816A1F1831534F0332079F091E039161B
:104D8000D9F0D0C0E4E03E1609F44AC03E16B4F1B2
:104D9000F5E03F1609F456C0C5C0C7BC2093C00B50
:104DA0003093C10B4093C20B5093C30B80916E00A4
:104DB000826080936E00B6C0D0928900C092880055
:104DC0002093BC0B3093BD0B4093BE0B5093BF0B95
:104DD00080916F00826080936F00A4C0C092B30086
:104DE0002093C70B3093C80B4093C90B5093CA0B49
:104DF0008091700082608093700094C0D09299007E
:104E0000C09298002093B80B3093B90B4093BA0B23
:104E10005093BB0B8091710082608093710082C0BF
:104E2000D092A900C092A8002093B40B3093B50B88
:104E30004093B60B5093B70B8091720082608093C1
:104E4000720070C0D0922901C09228012093B00B4B
:104E50003093B10B4093B20B5093B30B809173001E
:104E60008260809373005EC084E0F4CE2FEFC216A0
:104E7000D104E104F104D1F0C8F062E17AE780E006
:104E800090E0A50194010E94613469017A01E1E09A
:104E9000CE1AD108E108F108FFEFCF16D104E104E2
:104EA000F10411F008F08FCE84E0A0CE83E09ECE16
:104EB00062E17AE780E090E0A50194010E9461340C
:104EC00069017A0181E0C81AD108E108F1089FEF71
:104ED000C916D104E104F104C1F0B8F089819A81C6
:104EE000AB81BC814AE0B595A795979587954A9582
:104EF000D1F76C017D01E1E0CE1AD108E108F1089B
:104F0000332009F472CE87E0A5CE86E059CEEFEFCC
:104F1000CE16D104E104F10409F050F684E050CE3D
:104F200082E098CE0F900F900F900F90DF91CF916D
:104F30001F910F91FF90EF90DF90CF90BF90AF90B7
:104F40009F908F907F906F905F904F903F900895CB
:104F50004F925F926F927F92EF92FF920F931F9307
:104F6000CF93DF93CDB7DEB7A1970FB6F894DEBF2E
:104F70000FBECDBF7C01FA01CB0119A2223008F48B
:104F80002AE08E010F5D1F4F422E512C612C712C97
:104F9000BF01A30192010E943F34F901CA010150EF
:104FA00011096A3014F4605D01C0695CD8016C932A
:104FB000232B242B252B61F7B801C7010E94F41184
:104FC000A1960FB6F894DEBF0FBECDBFDF91CF9193
:104FD0001F910F91FF90EF907F906F905F904F9097
:104FE000089567E974E00C94F4110F931F93CF9325
:104FF000DF93EC010E94F4118C01CE01F2DF800FEF
:10500000911FDF91CF911F910F910895DC01ED91D8
:10501000FC910190F081E02D19940C94F411DC01C5
:10502000ED91FC91DB0114964D915C9115976D917A
:105030007C910280F381E02D1994CF93DF93CDB75B
:10504000DEB7EE970FB6F894DEBF0FBECDBF7894F3
:1050500084B5826084BD84B5816084BD85B582607D
:1050600085BD85B5816085BD80916E00816080932E
:105070006E00109281008091810082608093810097
:1050800080918100816080938100809180008160A7
:10509000809380008091B10084608093B100809102
:1050A000B00081608093B000809191008260809315
:1050B0009100809191008160809391008091900097
:1050C0008160809390008091A10082608093A10014
:1050D0008091A10081608093A1008091A0008160F7
:1050E0008093A000809121018260809321018091B2
:1050F0002101816080932101809120018160809352
:10510000200180917A00846080937A0080917A00F7
:10511000826080937A0080917A00816080937A0027
:1051200080917A00806880937A001092C100E091AB
:105130001807F091190702E00083E0911407F0913D
:1051400015071082E0911607F09117078FEC808306
:1051500010922007E0911C07F0911D0796E09083C4
:10516000E0911A07F0911B07808180618083E091B4
:105170001A07F0911B07808188608083E0911A07ED
:10518000F0911B07808180688083E0911A07F0917D
:105190001B0780818F7D80832DE6C22E29E0D22ED1
:1051A000E0917D09F0917E090083E0917909F09109
:1051B0007A091082E0917B09F0917C0987E680836F
:1051C00010928509E0918109F09182099083E09124
:1051D0007F09F0918009808180618083E0917F095F
:1051E000F0918009808188608083E0917F09F0914F
:1051F0008009808180688083E0917F09F091800937
:1052000080818F7D80836BEE73E088E097E0EDDE38
:1052100061E08091DC0A0E94521061E08091DD0A19
:105220000E9452106091DE0A7091DF0A22E330E0A2
:1052300040E050E08091DC0A25DB83E998E00E94A1
:105240009F1B11E01093D90A83E294E19093D80A4E
:105250008093D70A38EE832E33E0932EA12CB12C05
:105260008092CB0A9092CC0AA092CD0AB092CE0A3C
:105270008091CF0A9091D00AA091D10AB091D20A20
:1052800088519C4FAF4FBF4F8093D30A9093D40A5D
:10529000A093D50AB093D60A89E898E00E949F1B94
:1052A0001093C60A86E094E19093C50A8093C40ADD
:1052B0008092B80A9092B90AA092BA0AB092BB0A38
:1052C0008091BC0A9091BD0AA091BE0AB091BF0A1C
:1052D00088519C4FAF4FBF4F8093C00A9093C10A33
:1052E000A093C20AB093C30A6BEF73E088E097E023
:1052F00094DE83E898E00E94ED0860E080917F08EA
:105300000E9452101093B30A8BEE93E19093B20A6D
:105310008093B10A1092A50A1092A60A1092A70AC9
:105320001092A80A8091A90A9091AA0AA091AB0AAA
:10533000B091AC0A8093AD0A9093AE0AA093AF0AE5
:10534000B093B00A6BEF73E088E097E066DE89E720
:1053500098E00E94ED0860E0809175080E9452106C
:105360001093A00A80ED93E190939F0A80939E0A88
:105370008092920A9092930AA092940AB092950A0F
:105380008091960A9091970AA091980AB091990AF3
:1053900088519C4FAF4FBF4F80939A0A90939B0ABE
:1053A000A0939C0AB0939D0A6BEF73E088E097E0AE
:1053B00034DE8FE698E00E94ED0860E080916B0893
:1053C0000E94521010938D0A85EB93E190938C0A02
:1053D00080938B0A10927F0A1092800A1092810AA1
:1053E0001092820A8091830A9091840AA091850A82
:1053F000B091860A8093870A9093880AA093890ABD
:10540000B0938A0A10937A0A85E992E19093790A17
:105410008093780A80E395E7A0E0B0E080936C0A7F
:1054200090936D0AA0936E0AB0936F0A8091700AF0
:105430009091710AA091720AB091730A805D9A48A6
:10544000AF4FBF4F8093740A9093750AA093760A6A
:10545000B093770A1093670A88EE91E09093660AFA
:105460008093650A80EE9EE2A0E0B0E08093590A46
:1054700090935A0AA0935B0AB0935C0A80915D0AEC
:1054800090915E0AA0915F0AB091600A8052914D9E
:10549000AF4FBF4F8093610A9093620AA093630A53
:1054A000B093640A89EC9AE00E94DB0986EB9AE0EB
:1054B0000E94DB0983EA9AE00E94DB0980E99AE016
:1054C0000E94DB098DE79AE00E94DB0983E089A353
:1054D0000AA37E0121E2E20EF11CF0925E08E09246
:1054E0005D08DCA2CBA2D0925C08C0925B0881E28E
:1054F00094E00E94C21187E694E00E94590981114C
:1055000006C066E074E088E097E06FDDF0CF86E2E9
:1055100094E00E94C21187E694E00E945909782E17
:10552000882379F3FE0131961192EE15FF05E1F71C
:1055300083E0C82ED12C82E394E00E94C2110E9425
:10554000E5101B012C01812C912C540100E010E08E
:105550000E94E911892B41F180915B0890915C08D0
:10556000DC01ED91FC910284F385E02D1995682E04
:105570000E94E5104B015C0198012F5F3F4FE1E075
:10558000F0E0EC0FFD1FE00FF11F608220323105CB
:105590004CF06DE374E0CE0101960E94C736892B72
:1055A00041F133C08901D4CF0032110594F70E9434
:1055B000E510DC01CB0182199309A409B5098938EA
:1055C0009341A105B10528F70E94E510DC01CB014C
:1055D00088199909AA09BB098D3D9540A105B10516
:1055E00008F4B6CF81149104A104B10409F4B0CF3A
:1055F000D0CF6CE271E080E090E00E94AD1081E0DD
:10560000C81AD10809F47DCF96CF772009F479CF55
:105610008AE494E00E94C21185E594E00E94590951
:10562000882359F08CE694E00E94C21187E794E049
:105630000E945909811117C00BC086E894E00E94AE
:10564000C21187E694E00E9459098111EBCF59CF2E
:1056500086EA94E00E94C21187E694E00E9459090C
:10566000882309F44ECF8AE994E00E94C21187E6AC
:1056700094E00E945909882309F443CF6DEE74E049
:1056800088E097E0B2DC6AE075E088E097E0ADDCA6
:1056900064E175E08DE699E0A8DC60ED77E080E0FC
:1056A00090E00E94AD1062E375E088E097E09DDC39
:1056B0006AE375E08DE699E098DC60ED77E080E0E4
:1056C00090E00E94AD1064E675E088E097E08DDC24
:1056D0006DE675E08DE699E088DC60ED77E080E0CE
:1056E00090E00E94AD106AE775E088E097E07DDC0D
:1056F00064E875E08DE699E078DC60ED77E080E0C5
:1057000090E00E94AD108DE699E00E94C406892BBE
:1057100029F08DE699E00E94A206F5CFCE01019610
:105720000E948B0EBE016F5F7F4F8AEF9AE00E944E
:10573000F422CE0101960E947E23CE0101960E94A2
:10574000310EBE016F5F7F4F84EF9AE00E94F4221A
:10575000CE0101960E947E2362EB74E0CE01C996D1
:105760000E948B236AEF7AE0CE01C9960E94EE2256
:1057700068EB74E0CE01C9960E94E60E64EF7AE011
:10578000CE01C9960E94EE22CE01C9960E94ED0874
:10579000BE01675C7F4FCE0101960E94832360ECBF
:1057A00074E0C7010E948B23BE016F5F7F4FC7016A
:1057B0000E94FE08C7010E947E23CE0101960E942E
:1057C0007E23CE01C9960E947E238091EC0A81112E
:1057D00004C084E29AE00E9413118091EB0A8230A7
:1057E00019F58091ED0A8823F9F00E94E5100091E7
:1057F000E50A1091E60A2091E70A3091E80AAB0128
:10580000BC01401B510B620B730B8091E20A90911B
:10581000E30A092E000CAA0BBB0B481759076A07AD
:105820007B0710F00E94580C0E94E510AB01BC01F0
:105830008AE69AE00E941A0F882321F08AE69AE00D
:105840000E94F1100E94E510AB01BC0187E59AE0CF
:105850000E941A0F882321F087E59AE00E94F11038
:105860000E946A07B2CFCF92DF92FF920F931F93ED
:10587000CF93DF93CDB7DEB72F970FB6F894DEBF87
:105880000FBECDBF8C016C0182E0C80ED11CAE01F1
:105890004F5F5F4F60E871E0C6010E948A19BE0148
:1058A0006F5F7F4F87ED97E00E94481AF82E88239C
:1058B00049F0D801ED91FC910484F585E02D62E07A
:1058C00070E01AC0AE014F5F5F4F69E771E0C6013B
:1058D0000E948A19BE016F5F7F4F87ED97E00E949B
:1058E000481AF82E882379F0D801ED91FC910484B0
:1058F000F585E02D63E070E0C80119958091D80727
:105900008093D7074DC0AE014F5F5F4F6EE671E0E9
:10591000C6010E948A19BE016F5F7F4F87ED97E035
:105920000E94481AF82E811112C0AE014F5F5F4FDE
:1059300069E671E0C6010E948A19BE016F5F7F4F60
:1059400087ED97E00E94481AF82E882349F0D80185
:10595000ED91FC910484F585E02D60E070E0CCCF02
:10596000AE014F5F5F4F62E671E0C6010E948A1987
:10597000BE016F5F7F4F87ED97E00E94481AF82EB7
:10598000882371F08091D8078093D707D801ED91D3
:10599000FC910484F585E02D62E070E0C801199562
:1059A0008F2D2F960FB6F894DEBF0FBECDBFDF91BF
:1059B000CF911F910F91FF90DF90CF9008950297A4
:1059C00052CF2091B1073091B2072A30310541F012
:1059D0002B30310539F02930310531F40C94B721E1
:1059E0000C9464120C94022208950297EACFFF925D
:1059F0000F931F93CF93DF9300D000D0CDB7DEB7C6
:105A000007E213E01093010B0093000B1092020BBE
:105A10001092030B1092040B1092050B1092700958
:105A200010926F0948EE53E060E070E04093710916
:105A300050937209609373097093740985E692E03C
:105A400090936E0980936D092DEC30E030937A09C4
:105A5000209379092CEC30E030937C0920937B096A
:105A600028EC30E030937E0920937D0929EC30E06A
:105A70003093800920937F092AEC30E0309382092B
:105A8000209381092EEC30E0309384092093830920
:105A9000109286091092870910928809109289093C
:105AA00010920B0710920A0740930C0750930D07B2
:105AB00060930E0770930F07909309078093080770
:105AC00085EC90E0909315078093140784EC90E0A8
:105AD000909317078093160780EC90E09093190736
